:020000040800F2
:10000000005000209D680008096100080F61000889
:10001000156100081B610008216100080000000054
:100020000000000000000000000000002761000840
:1000300033610008000000003F6100084B610008C8
:10004000E568000857610008E5680008E5680008F1
:10005000E5680008E5680008E5680008E56800084C
:10006000E5680008E5680008E568000865610008C3
:10007000E5680008E5680008E5680008E56800082C
:10008000E5680008E5680008E5680008E56800081C
:1000900079610008E5680008E5680008E56800087F
:1000A000E5680008E5680008E5680008E5680008FC
:1000B0008D610008E5680008E5680008E56800084B
:1000C000E5680008E5680008E5680008E5680008DC
:1000D000E5680008A1610008B5610008C961000871
:1000E000E5680008E5680008E56800080000000011
:1000F0000000000000000000000000000000000000
:0C01000000000000000000005FF808F1A3
:1001100010B5054C237833B9044B13B10448AFF341
:1001200000800123237010BD980000200000000013
:1001300014D3000808B5034B1BB103490348AFF3C0
:10014000008008BD000000009C00002014D30008BF
:10015000034613F8012B002AFBD1181A0138704707
:1001600081F0004102E000BF83F0004330B54FEA68
:1001700041044FEA430594EA050F08BF90EA020FD5
:100180001FBF54EA000C55EA020C7FEA645C7FEA68
:10019000655C00F0E2804FEA5454D4EB5555B8BF8B
:1001A0006D420CDD2C4480EA020281EA030382EAFC
:1001B000000083EA010180EA020281EA0303362D8E
:1001C00088BF30BD11F0004F4FEA01314FF4801C61
:1001D0004CEA113102D0404261EB410113F0004F73
:1001E0004FEA03334CEA133302D0524263EB43032A
:1001F00094EA050F00F0A780A4F10104D5F1200EC8
:100200000DDB02FA0EFC22FA05F2801841F1000122
:1002100003FA0EF2801843FA05F359410EE0A5F1F6
:1002200020050EF1200E012A03FA0EFC28BF4CF027
:10023000020C43FA05F3C01851EBE37101F00045DD
:1002400007D54FF0000EDCF1000C7EEB00006EEBEA
:100250000101B1F5801F1BD3B1F5001F0CD3490874
:100260005FEA30004FEA3C0C04F101044FEA4452CB
:1002700012F5800F80F09A80BCF1004F08BF5FEA52
:10028000500C50F1000041EB045141EA050130BD32
:100290005FEA4C0C404141EB0101013C28BFB1F544
:1002A000801FE9D291F0000F04BF01460020B1FA8F
:1002B00081F308BF2033A3F10B03B3F120020CDA62
:1002C0000C3208DD02F1140CC2F10C0201FA0CF040
:1002D00021FA02F10CE002F11402D8BFC2F1200CA5
:1002E00001FA02F120FA0CFCDCBF41EA0C0190405B
:1002F000E41AA2BF01EB0451294330BD6FEA0404A4
:100300001F3C1CDA0C340EDC04F11404C4F120028E
:1003100020FA04F001FA02F340EA030021FA04F3A0
:1003200045EA030130BDC4F10C04C4F1200220FAF7
:1003300002F001FA04F340EA0300294630BD21FA35
:1003400004F0294630BD94F0000F83F4801306BFFB
:1003500081F480110134013D4EE77FEA645C18BFEF
:100360007FEA655C29D094EA050F08BF90EA020F86
:1003700005D054EA000C04BF1946104630BD91EA7E
:10038000030F1EBF0021002030BD5FEA545C05D181
:100390004000494128BF41F0004130BD14F58004C0
:1003A0003CBF01F5801130BD01F0004545F0FE4134
:1003B00041F470014FF0000030BD7FEA645C1ABF69
:1003C000194610467FEA655C1CBF0B46024650EAA0
:1003D000013406BF52EA033591EA030F41F40021CC
:1003E00030BD00BF90F0000F04BF0021704730B552
:1003F0004FF4806404F132044FF000054FF0000127
:1004000050E700BF90F0000F04BF0021704730B5E7
:100410004FF4806404F1320410F0004548BF4042BC
:100420004FF000013EE700BF42004FEAE2014FEA11
:1004300031014FEA02701FBF12F07F4393F07F4FEC
:1004400081F06051704732F07F4208BF704793F0EF
:100450007F4F04BF41F40021704730B54FF4607402
:1004600001F0004521F000411CE700BF50EA010205
:1004700008BF704730B54FF000050AE050EA0102AE
:1004800008BF704730B511F0004502D5404261EB1E
:1004900041014FF4806404F132045FEA915C3FF45F
:1004A000D8AE4FF003025FEADC0C18BF03325FEAFC
:1004B000DC0C18BF033202EBDC02C2F1200300FAAD
:1004C00003FC20FA02F001FA03FE40EA0E0021FAD2
:1004D00002F11444BDE600BF70B54FF0FF0C4CF4C0
:1004E000E06C1CEA11541DBF1CEA135594EA0C0F72
:1004F00095EA0C0F00F0DEF82C4481EA030621EAAD
:100500004C5123EA4C5350EA013518BF52EA0335E7
:1005100041F4801143F4801338D0A0FB02CE4FF099
:100520000005E1FB02E506F00042E0FB03E54FF0C9
:100530000006E1FB03569CF0000F18BF4EF0010EC1
:10054000A4F1FF04B6F5007F64F5407404D25FEABD
:100550004E0E6D4146EB060642EAC62141EA555170
:100560004FEAC52040EA5E504FEACE2EB4F1FD0CB2
:1005700088BFBCF5E06F1ED8BEF1004F08BF5FEA30
:10058000500E50F1000041EB045170BD06F00046E2
:1005900046EA010140EA020081EA0301B4EB5C048F
:1005A000C2BFD4EB0C0541EA045170BD41F4801187
:1005B0004FF0000E013C00F3AB8014F1360FDEBFAC
:1005C000002001F0004170BDC4F10004203C35DA88
:1005D0000C341BDC04F11404C4F1200500FA05F30B
:1005E00020FA04F001FA05F240EA020001F00042AC
:1005F00021F0004110EBD37021FA04F642EB060122
:100600005EEA430E08BF20EAD37070BDC4F10C044B
:10061000C4F1200500FA04F320FA05F001FA04F20F
:1006200040EA020001F0004110EBD37041F10001FB
:100630005EEA430E08BF20EAD37070BDC4F1200506
:1006400000FA05F24EEA020E20FA04F301FA05F26E
:1006500043EA020321FA04F001F0004121FA04F216
:1006600020EA020000EBD3705EEA430E08BF20EAE6
:10067000D37070BD94F0000F0FD101F00046400020
:1006800041EB010111F4801F08BF013CF7D041EAA2
:10069000060195F0000F18BF704703F000465200A6
:1006A00043EB030313F4801F08BF013DF7D043EA77
:1006B0000603704794EA0C0F0CEA135518BF95EA2D
:1006C0000C0F0CD050EA410618BF52EA4306D1D1B4
:1006D00081EA030101F000414FF0000070BD50EAD3
:1006E000410606BF1046194652EA430619D094EA5D
:1006F0000C0F02D150EA013613D195EA0C0F05D147
:1007000052EA03361CBF104619460AD181EA03019A
:1007100001F0004141F0FE4141F470014FF0000052
:1007200070BD41F0FE4141F4780170BD70B54FF0ED
:10073000FF0C4CF4E06C1CEA11541DBF1CEA13556D
:1007400094EA0C0F95EA0C0F00F0A7F8A4EB05044F
:1007500081EA030E52EA03354FEA013100F0888046
:100760004FEA03334FF0805545EA131343EA12630F
:100770004FEA022245EA111545EA10654FEA0026C4
:100780000EF000419D4208BF964244F1FD0404F57D
:10079000407402D25B084FEA3202B61A65EB0305D9
:1007A0005B084FEA32024FF480104FF4002CB6EB96
:1007B000020E75EB030E22BFB61A754640EA0C0016
:1007C0005B084FEA3202B6EB020E75EB030E22BF56
:1007D000B61A754640EA5C005B084FEA3202B6EB97
:1007E000020E75EB030E22BFB61A754640EA9C0056
:1007F0005B084FEA3202B6EB020E75EB030E22BF26
:10080000B61A754640EADC0055EA060E18D04FEAE3
:10081000051545EA16754FEA06164FEAC30343EA83
:1008200052734FEAC2025FEA1C1CC0D111F4801F50
:100830000BD141EA00014FF000004FF0004CB6E749
:1008400011F4801F04BF01430020B4F1FD0C88BFE8
:10085000BCF5E06F3FF6AFAEB5EB030C04BFB6EBF3
:10086000020C5FEA500C50F1000041EB045170BDE6
:100870000EF0004E4EEA113114EB5C04C2BFD4EB13
:100880000C0541EA045170BD41F480114FF0000E97
:10089000013C90E645EA060E8DE60CEA135594EA13
:1008A0000C0F08BF95EA0C0F3FF43BAF94EA0C0F16
:1008B0000AD150EA01347FF434AF95EA0C0F7FF48B
:1008C00025AF104619462CE795EA0C0F06D152EADF
:1008D00003353FF4FDAE1046194622E750EA4106C3
:1008E00018BF52EA43067FF4C5AE50EA41047FF4D4
:1008F0000DAF52EA43057FF4EBAE12E74FF0FF3C39
:1009000006E000BF4FF0010C02E000BF4FF0010C09
:100910004DF804CD4FEA410C7FEA6C5C4FEA430C82
:1009200018BF7FEA6C5C1BD001B050EA410C0CBFD1
:1009300052EA430C91EA030F02BF90EA020F002033
:10094000704710F1000F91EA030F58BF994208BF9A
:1009500090422CBFD8176FEAE37040F00100704757
:100960004FEA410C7FEA6C5C02D150EA013C07D1AE
:100970004FEA430C7FEA6C5CD6D152EA033CD3D0F9
:100980005DF8040B704700BF8446104662468C46F3
:100990001946634600E000BF01B5FFF7B7FF002826
:1009A00048BF10F1000F01BD4DF808EDFFF7F4FF4F
:1009B0000CBF012000205DF808FB00BF4DF808EDDA
:1009C000FFF7EAFF34BF012000205DF808FB00BFFD
:1009D0004DF808EDFFF7E0FF94BF012000205DF81F
:1009E00008FB00BF4DF808EDFFF7CEFF94BF0120D4
:1009F00000205DF808FB00BF4DF808EDFFF7C4FFCD
:100A000034BF012000205DF808FB00BF4A0011D26E
:100A100012F5001211D20DD56FF47873B3EB625258
:100A20000ED44FEAC12343F0004343EA505323FA64
:100A300002F070474FF00000704750EA013002D1D9
:100A40004FF0FF3070474FF0000070474FEA41020F
:100A5000B2F1E04324BFB3F5001CDCF1FE5C0DD91C
:100A600001F0004C4FEAC0024CEA5070B2F1004F66
:100A700040EB830008BF20F00100704711F0804F69
:100A800021D113F13872BCBF01F00040704741F42E
:100A900080114FEA5252C2F11802C2F1200C10FA32
:100AA0000CF320FA02F018BF40F001004FEAC12316
:100AB0004FEAD32303FA0CFC40EA0C0023FA02F3BA
:100AC0004FEA4303CCE77FEA625307D150EA013390
:100AD0001EBF4FF0FE4040F44000704701F0004060
:100AE00040F0FE4040F40000704700BF80F000403E
:100AF00002E000BF81F0004142001FBF5FEA4103F6
:100B000092EA030F7FEA226C7FEA236C6AD04FEAF5
:100B10001262D2EB1363C1BFD2184140484041403A
:100B2000B8BF5B42192B88BF704710F0004F40F4EC
:100B3000000020F07F4018BF404211F0004F41F408
:100B4000000121F07F4118BF494292EA030F3FD0D4
:100B5000A2F1010241FA03FC10EB0C00C3F12003E7
:100B600001FA03F100F0004302D5494260EB400076
:100B7000B0F5000F13D3B0F1807F06D340084FEAE1
:100B8000310102F10102FE2A51D2B1F1004F40EBD6
:100B9000C25008BF20F0010040EA0300704749003E
:100BA00040EB0000013A28BFB0F5000FEDD2B0FADB
:100BB00080FCACF1080CB2EB0C0200FA0CF0AABFFE
:100BC00000EBC25052421843BCBFD040184370479C
:100BD00092F0000F81F4000106BF80F400000132A2
:100BE000013BB5E74FEA41037FEA226C18BF7FEA79
:100BF000236C21D092EA030F04D092F0000F08BFBB
:100C00000846704790EA010F1CBF0020704712F0A1
:100C10007F4F04D1400028BF40F00040704712F1E0
:100C200000723CBF00F50000704700F0004343F045
:100C3000FE4040F4000070477FEA226216BF08467B
:100C40007FEA23630146420206BF5FEA412390EA3E
:100C5000010F40F4800070474FF0000304E000BF34
:100C600010F0004348BF40425FEA000C08BF7047E5
:100C700043F0964301464FF000001CE050EA0102A9
:100C800008BF70474FF000030AE000BF50EA0102BE
:100C900008BF704711F0004302D5404261EB4101AB
:100CA0005FEA010C02BF84460146002043F0B643D0
:100CB00008BFA3F18053A3F50003BCFA8CF2083AF5
:100CC000A3EBC25310DB01FA02FC634400FA02FCFE
:100CD000C2F12002BCF1004F20FA02F243EB020005
:100CE00008BF20F00100704702F1200201FA02FC67
:100CF000C2F1200250EA4C0021FA02F243EB02005A
:100D000008BF20EADC7070474FF0FF0C1CEAD0529D
:100D10001EBF1CEAD15392EA0C0F93EA0C0F6FD05E
:100D20001A4480EA010C400218BF5FEA41211ED03C
:100D30004FF0006343EA501043EA5111A0FB013128
:100D40000CF00040B1F5000F3EBF490041EAD371FD
:100D50005B0040EA010062F17F02FD2A1DD8B3F179
:100D6000004F40EBC25008BF20F00100704790F0E8
:100D7000000F0CF0004C08BF49024CEA502040EA3A
:100D800051207F3AC2BFD2F1FF0340EAC250704700
:100D900040F400004FF00003013A5DDC12F1190F3E
:100DA000DCBF00F000407047C2F10002410021FAB0
:100DB00002F1C2F1200200FA02FC5FEA310040F1C8
:100DC000000053EA4C0308BF20EADC70704792F041
:100DD000000F00F0004C02BF400010F4000F013A79
:100DE000F9D040EA0C0093F0000F01F0004C02BF74
:100DF000490011F4000F013BF9D041EA0C018FE7E3
:100E00000CEAD15392EA0C0F18BF93EA0C0F0AD0E8
:100E100030F0004C18BF31F0004CD8D180EA01000E
:100E200000F00040704790F0000F17BF90F0004FA7
:100E3000084691F0000F91F0004F14D092EA0C0F89
:100E400001D142020FD193EA0C0F03D14B0218BF1C
:100E5000084608D180EA010000F0004040F0FE4062
:100E600040F40000704740F0FE4040F440007047FE
:100E70004FF0FF0C1CEAD0521EBF1CEAD15392EA7D
:100E80000C0F93EA0C0F69D0A2EB030280EA010C6D
:100E900049024FEA402037D04FF0805343EA111106
:100EA00043EA10130CF000408B4238BF5B0042F164
:100EB0007D024FF4000C8B4224BF5B1A40EA0C0009
:100EC000B3EB510F24BFA3EB510340EA5C00B3EB3B
:100ED000910F24BFA3EB910340EA9C00B3EBD10F29
:100EE00024BFA3EBD10340EADC001B0118BF5FEA7B
:100EF0001C1CE0D1FD2A3FF650AF8B4240EBC250A4
:100F000008BF20F0010070470CF0004C4CEA502064
:100F10007F32C2BFD2F1FF0340EAC250704740F4B3
:100F200000004FF00003013A37E792F0000F00F0A5
:100F3000004C02BF400010F4000F013AF9D040EA23
:100F40000C0093F0000F01F0004C02BF490011F4B7
:100F5000000F013BF9D041EA0C0195E70CEAD153AF
:100F600092EA0C0F08D142027FF47DAF93EA0C0F96
:100F70007FF470AF084676E793EA0C0F04D14B027A
:100F80003FF44CAF08466EE730F0004C18BF31F02C
:100F9000004CCAD130F000427FF45CAF31F0004326
:100FA0007FF43CAF5FE700BF4FEA4002B2F1FE4F73
:100FB0000FD34FF09E03B3EB12620DD94FEA00231B
:100FC00043F0004310F0004F23FA02F018BF4042F4
:100FD00070474FF00000704712F1610F01D14202DB
:100FE00005D110F0004008BF6FF0004070474FF08F
:100FF0000000704780B584B000AF0346FB7100234A
:10100000FB600023BB604FF4FE63FB6040F2FF73A4
:10101000BB60164B00225A61144B00229A61134B9D
:101020000122DA61FB685B01104A13600F4B00225A
:101030005A60BB685B010D4A93600C4B0022DA607A
:101040000A4B00221A61094B01221A62074B0E2239
:101050005A620649064806F093F90346002B01D070
:1010600003F081FF00BF1037BD4680BD380300206C
:101070002C13002080B582B000AF0346FB71FB79D2
:1010800003F5F4631A46154B1A60144B01225A609B
:10109000124B0022DA60114B00229A600F4B08229B
:1010A0001A610E4B00221A75FB791846FFF7A2FF52
:1010B0000B4806F02EFA0346002B01D003F053FF35
:1010C0000221074806F08AFB0346002B01D003F0FB
:1010D0004AFF00BF0837BD4680BD00BF140B00208B
:1010E0002C13002090B587B004AF304B1B78013B28
:1010F000032B0BD801A252F823F000BF0D110008FA
:101100000D1100080D1100080D11000800BF274B3C
:101110001B789BB21B029AB2244B5B789BB21344A0
:101120009BB23B80214B9B789BB21B029AB21F4B18
:10113000DB789BB213449BB27B801C4B1B799BB228
:101140001B029AB2194B5B799BB213449BB2BB80D2
:10115000164B9B799BB21B029AB2144BDB799BB264
:1011600013449BB2FB8012480AF0EAFF114B1A6845
:101170003B881C467B88B988F888029001910093CF
:1011800023460D490D480BF051F80C48FEF7E0FFDF
:1011900003469AB26423094909480AF0F9F8094B51
:1011A00000221A7000BF0C37BD4690BD9011002080
:1011B00044D30008540D002050D30008440C0020F4
:1011C00000150020910300202DE9F04F9DB000AFE5
:1011D000002387F86F3037E0002387F86E302AE06D
:1011E00097F86F2097F86E3052001344DB0060339D
:1011F00007F110021344A3F140014FF000024FF039
:101200000003C1E9002397F86F2097F86E30520071
:101210001344DB00603307F110021344A3F16001B3
:101220004FF000024FF00003C1E9002397F86E3041
:10123000013387F86E3097F86E30012BD0D997F8CC
:101240006F30013387F86F3097F86F30012BC3D9B7
:101250004FF000024FF00003C7E91823C44B1B787E
:10126000002B06D100F0B0FCC14B01221A7000F037
:1012700086BCBF4B1B78012B40F08184B2A3D3E91D
:101280000023C7E91623BB4BDB8B1846FFF7BAF8E0
:10129000AFA3D3E90023FFF749FA02460B46C7E99B
:1012A0001423B54BD3E900454FF00002B34BD7E907
:1012B0001601FFF73BFA02460B4610461946A6A355
:1012C000D3E90023FFF708F902460B4620462946DA
:1012D000FEF74AFF02460B46A949C1E90023A64B87
:1012E000D3E902019EA3D3E90023FFF7F5F80246F4
:1012F0000B4614461D469CA3D3E90023D7E91601EB
:10130000FFF7EAF802460B4620462946FEF72EFF75
:1013100002460B469A49C1E90223002387F86F3041
:101320005BE0002387F86E304EE0002387F86D30D5
:1013300041E097F86F2097F86E3052001344DB00BD
:10134000603307F110021344403BD3E9004597F89E
:101350006F2097F86D308B4952001344DB000B442B
:10136000D3E9000197F86D2097F86E30864E520051
:101370001344DB003344D3E90023FFF7ADF8024602
:101380000B4697F86F8097F86E6020462946FEF767
:10139000EDFE02460B464FEA48013144C900603178
:1013A00007F1100001444039C1E9002397F86D307E
:1013B000013387F86D3097F86D30012BB9D997F864
:1013C0006E30013387F86E3097F86E30012BACD950
:1013D00097F86F30013387F86F3097F86F30012B33
:1013E0009FD9002387F86F305EE0002387F86E30C6
:1013F00051E0002387F86D3044E097F86F2097F8AC
:101400006E3052001344DB00603307F110021344C6
:10141000603BD3E9004597F86F2097F86D30520094
:101420001344DB00603307F110021344403BD3E95F
:10143000000197F86E2097F86D30524E5200134419
:10144000DB003344D3E90023FFF746F802460B469E
:1014500097F86F8097F86E6020462946FEF786FE63
:1014600002460B464FEA48013144C900603107F19A
:10147000100001446039C1E9002397F86D30013351
:1014800087F86D3097F86D30012BB6D997F86E302C
:10149000013387F86E3097F86E30012BA9D997F891
:1014A0006F30013387F86F3097F86F30012B9CD97C
:1014B000002387F86F3039E0002387F86E302CE086
:1014C00097F86F2097F86E3052001344DB006033BA
:1014D00007F110021344603BD3E9000197F86F2035
:1014E00097F86E30294C52001344DB002344D3E9B3
:1014F000002397F86F5097F86E40FEF737FE0246CC
:101500000B46234869002144C9000144C1E9002376
:1015100097F86E30013387F86E3097F86E30012BF4
:10152000CED997F86F30013387F86F3097F86F3066
:10153000012BC1D9002387F86F305FE0002387F8C3
:101540006E3052E0AFF3008079E9263108AC9C3F61
:10155000000000000088C3409A9999999999B93F71
:10156000A1BF4731A0D7EF3F368661685E1ED63EE9
:10157000B4000020600300203012002000940141DC
:10158000A812002050120020F0110020101200209C
:101590008812002097F86F2097F86E30520013449D
:1015A000DB00603307F110021344A3F140014FF058
:1015B00000024FF00003C1E9002397F86F2097F86D
:1015C0006E3052001344DB00603307F11002134405
:1015D000A3F160014FF000024FF00003C1E90023C6
:1015E00097F86E30013387F86E3097F86E30012B24
:1015F000D0D997F86F30013387F86F3097F86F3094
:10160000012B9BD9AE4BD3E900231046194600F0BD
:1016100063FD02460B46AB49C1E90023A9494FF0DF
:101620000002A94BC1E90223A64BD3E90045A74B11
:10163000D3E90001A34BD3E90023FEF74DFF024697
:101640000B4690469946A14BD3E902019D4BD3E945
:101650000223FEF741FF02460B4640464946FEF78D
:1016600085FD02460B4620462946FEF735FF024619
:101670000B46C7E90023934BD3E90245934BD3E9CB
:101680000401904BD3E90023FEF726FF02460B46E8
:10169000904699468D4BD3E906018A4BD3E9022344
:1016A000FEF71AFF02460B4640464946FEF75EFD2E
:1016B00002460B4620462946FEF70EFF02460B4621
:1016C000D7E90001FEF752FD02460B4610461946C7
:1016D0007F4BD3E90023FEF749FD02460B46C7E9DD
:1016E00018237A4BD3E90001764BD3E90023FEF7A8
:1016F000F3FE02460B4614461D46744BD3E9020125
:10170000704BD3E90223FEF7E7FE02460B46204664
:101710002946FEF72BFD02460B4610461946D7E92F
:101720001823FFF703F802460B466A49C1E9002374
:10173000664BD3E90401634BD3E90023FEF7CCFEEB
:1017400002460B4614461D46604BD3E906015D4B2D
:10175000D3E90223FEF7C0FE02460B462046294687
:10176000FEF704FD02460B4610461946D7E918233A
:10177000FEF7DCFF02460B465649C1E902234FF053
:1017800000024FF00003C7E918234D4BD3E90023B3
:101790001046194600F0A8FA494BD3E90223FEF798
:1017A000E3FC02460B4614461D4643A3D3E900233F
:1017B000D7E91601FEF790FE02460B462046294661
:1017C000FEF7D2FC02460B464349C1E900233C4BDD
:1017D000D3E900453F4BD3E900893F4BD3E90023D0
:1017E000D7E91401FEF7C0FC02460B4640464946C5
:1017F000FEF772FE02460B4620462946FEF7B6FC6F
:1018000002460B463549C1E900232D4BD3E9024579
:10181000304BD3E90289304BD3E90023D7E91401D7
:10182000FEF7A2FC02460B4640464946FEF754FE30
:1018300002460B4620462946FEF798FC02460B4618
:101840002649C1E90223234BD3E900011D4BD3E90B
:101850000023FEF741FE02460B464FF000001A49F6
:10186000FEF782FC02460B46C7E90C23194BD3E96D
:101870000023BA6083F00043FB60124BD3E90223DC
:10188000D7E90201FEF728FE02460B46C7E90E2300
:10189000104BD3E90223924683F0004B094BD3E966
:1018A000002350465946FEF717FE02460B46C7E98D
:1018B0001023084B14E000BF5166834C3272563F30
:1018C000A8120020401200200000F03F88120020E3
:1018D000B80000207012002080120020301200207A
:1018E000D3E90201AE4BD3E90223FEF7F5FD024630
:1018F0000B464FF00000AB49FEF736FC02460B46A4
:10190000C7E91223002387F86F305EE0002387F8D1
:101910006E3051E0002387F86D3044E097F86F2077
:1019200097F86E3052001344DB00603307F1100269
:101930001344603BD3E9004597F86F2097F86D306A
:1019400052001344DB00603307F110021344403BA4
:10195000D3E9000197F86D2097F86E30924E52004F
:101960001344DB003344D3E90023FEF7B5FD024600
:101970000B4697F86F8097F86E6020462946FEF771
:10198000F5FB02460B464FEA48013144C90060317D
:1019900007F1100001446039C1E9002397F86D3068
:1019A000013387F86D3097F86D30012BB6D997F871
:1019B0006E30013387F86E3097F86E30012BA9D95D
:1019C00097F86F30013387F86F3097F86F30012B3D
:1019D0009CD9002387F86F302AE0002387F86E3007
:1019E0001DE097F86F2097F86E3097F86F0097F822
:1019F0006E1052001344DB00603307F110021344F1
:101A0000603BD3E90023694C40000144C9002144F4
:101A1000C1E9002397F86E30013387F86E3097F8EC
:101A20006E30012BDDD997F86F30013387F86F30B6
:101A300097F86F30012BD0D9002387F86F3037E04B
:101A4000002387F86E302AE097F86F2097F86E3001
:101A500052001344DB00603307F110021344A3F17A
:101A600040014FF000024FF00003C1E9002397F856
:101A70006F2097F86E3052001344DB00603307F19B
:101A800010021344A3F160014FF000024FF0000375
:101A9000C1E9002397F86E30013387F86E3097F86C
:101AA0006E30012BD0D997F86F30013387F86F3043
:101AB00097F86F30012BC3D93C4BD3E902013B4B64
:101AC000D3E90423FEF752FB02460B4610461946A3
:101AD0004FF000024FF08043FEF728FE02460B460F
:101AE0003249C1E90223314BD3E902232F49C1E92D
:101AF00004232F4BD3E9000123A3D3E90023FEF7EE
:101B00007BFF0346002B06D029491FA3D3E90023FE
:101B1000C1E9002310E0264BD3E900011CA3D3E95F
:101B20000023FEF74BFF0346002B05D0204918A3E6
:101B3000D3E90023C1E900231D4BD3E900231D494C
:101B4000C1E900231A4BD3E902231B49C1E9002351
:101B50001A4BD3E900231A49C1E90023154BD3E9F5
:101B600000010DA3D3E90023FEF7B6FC02460B46A5
:101B700010461946FEF74AFF0346124A136000BF9B
:101B80007437BD46BDE8F08FAE47E17A14AEEF3F43
:101B90007B14AE47E17A843F000000000088C34018
:101BA000401200200000F03F88120020F0110020B9
:101BB00030120020C0000020C80000208012002049
:101BC000D0000020D800002080B500AF00F0A0FCBD
:101BD0003B4B1B881846FEF715FC4FF00002394BB3
:101BE000FEF7A4FD02460B46104619464FF00002D0
:101BF0004FF00003FEF7BAFA02460B463249C1E93C
:101C0000002331494FF000024FF00003C1E90223E5
:101C10002E494FF000022E4BC1E900232B494FF013
:101C200000024FF00003C1E9022328494FF00002EF
:101C30004FF00003C1E90423244919A3D3E9002389
:101C4000C1E90623234918A3D3E90023C1E90023EE
:101C500020494FF000024FF00003C1E902231D4963
:101C60004FF000024FF00003C1E90423194910A30B
:101C7000D3E90023C1E9062317494FF00002174BAF
:101C8000C1E9002316494FF00002164BC1E90023B9
:101C9000134909A3D3E90023C1E9062300BF80BD8E
:101CA000A1BF4731A0D7EF3FF168E388B5F8E43E24
:101CB0008DEDB5A0F7C6B03E9A9999999999B93F1B
:101CC000DC0000200000594030120020501200209B
:101CD0000000F03F10120020B80000200000794002
:101CE000F01100200000144080B582B000AFC7E9B9
:101CF000000117A3D3E90023D7E90001FEF75EFE38
:101D00000346002B06D0D7E9000100F051F9024646
:101D10000B4616E010A3D3E90023D7E90001FEF734
:101D20004DFE0346002B06D0D7E9000100F0ACF8C9
:101D300002460B4605E0D7E9000100F011F8024623
:101D40000B46104619460837BD4680BDAFF30080EC
:101D5000333333333333D33F9A9999999999E93F80
:101D6000B0B59AB000AFC7E90001002387F867302B
:101D70003FA3D3E90023C7E912233FA3D3E90023FC
:101D8000C7E910233E4B07F108041D460FCD0FC4D1
:101D90000FCD0FC495E80F0084E80F004FF000024C
:101DA0004FF00003C7E90E234FF000024FF000038D
:101DB000C7E916234FF00002324BC7E91423D7E9D5
:101DC0001223D7E90001FEF7CFF902460B46104671
:101DD0001946D7E91023FEF7A9FC02460B46C7E9CE
:101DE0000E23002387F8673034E097F86730002B24
:101DF0000BD14FF00002234BC7E914234FF0000230
:101E00004FF00003C7E9162309E0D7E90E23D7E90D
:101E10001401FEF761FB02460B46C7E9142397F84D
:101E20006730DB0068333B44603BD3E90001D7E90E
:101E30001423FEF751FB02460B46D7E91601FEF7C5
:101E400095F902460B46C7E9162397F86730013328
:101E500087F8673097F86730052BC6D9D7E916237E
:101E6000104619466837BD46B0BD00BFAFF30080CD
:101E7000A4703D0AD7A3EC3F21EA3E00A94DAC3F38
:101E800078D300080000F03FB0B59AB000AFC7E9C2
:101E90000001002387F867303FA3D3E90023C7E997
:101EA00012233FA3D3E90023C7E910233E4B07F1D8
:101EB00008041D460FCD0FC40FCD0FC495E80F00C9
:101EC00084E80F004FF000024FF00003C7E90E2333
:101ED0004FF000024FF00003C7E916234FF0000255
:101EE000324BC7E91423D7E91223D7E90001FEF7E3
:101EF0003BF902460B4610461946D7E91023FEF778
:101F000015FC02460B46C7E90E23002387F867300D
:101F100034E097F86730002B0BD14FF00002234BD1
:101F2000C7E914234FF000024FF00003C7E916235E
:101F300009E0D7E90E23D7E91401FEF7CDFA0246EE
:101F40000B46C7E9142397F86730DB0068333B443E
:101F5000603BD3E90001D7E91423FEF7BDFA02463E
:101F60000B46D7E91601FEF701F902460B46C7E911
:101F7000162397F86730013387F8673097F8673092
:101F8000052BC6D9D7E91623104619466837BD4632
:101F9000B0BD00BFAFF300802FDD24068195E13F87
:101FA000E5D022DBF97EC23FA8D300080000F03F55
:101FB000B0B59AB000AFC7E90001002387F86730D9
:101FC0003FA3D3E90023C7E912233FA3D3E90023AA
:101FD000C7E910233E4B07F108041D460FCD0FC47F
:101FE0000FCD0FC495E80F0084E80F004FF00002FA
:101FF0004FF00003C7E90E234FF000024FF000033B
:10200000C7E916234FF00002324BC7E91423D7E982
:102010001223D7E90001FEF7A7F802460B46104647
:102020001946D7E91023FEF781FB02460B46C7E9A4
:102030000E23002387F8673034E097F86730002BD1
:102040000BD14FF00002234BC7E914234FF00002DD
:102050004FF00003C7E9162309E0D7E90E23D7E9BB
:102060001401FEF739FA02460B46C7E9142397F824
:102070006730DB0068333B44603BD3E90001D7E9BC
:102080001423FEF729FA02460B46D7E91601FEF79C
:102090006DF802460B46C7E9162397F867300133FF
:1020A00087F8673097F86730052BC6D9D7E916232C
:1020B000104619466837BD46B0BD00BFAFF300807B
:1020C000333333333333C33F518369183E22B63F32
:1020D000D8D300080000F03F80B582B000AFC7E958
:1020E000000117A3D3E90023D7E90001FEF766FC3E
:1020F0000346002B06D0D7E9000100F069F902463B
:102100000B4616E010A3D3E90023D7E90001FEF740
:1021100055FC0346002B06D0D7E9000100F0B8F8C3
:1021200002460B4605E0D7E9000100F011F802462F
:102130000B46104619460837BD4680BDAFF30080F8
:10214000333333333333D33F9A9999999999E93F8C
:10215000B0B59AB000AFC7E90001002387F8673037
:1021600045A3D3E90023C7E9122345A3D3E90023FC
:10217000C7E91023444B07F108041D460FCD0FC4D7
:102180000FCD0FC495E80F0084E80F004FF0000258
:102190004FF00003C7E90E234FF000024FF0000399
:1021A000C7E916234FF00002384BC7E91423D7E9DB
:1021B0001223D7E90001FDF7D7FF02460B46104670
:1021C0001946D7E91023FEF7B1FA02460B46C7E9D4
:1021D0000E23002387F8673041E097F86730002B23
:1021E0000BD14FF00002294BC7E914234FF0000236
:1021F0004FF00003C7E9162309E0D7E90E23D7E91A
:102200001401FEF769F902460B46C7E9142397F853
:10221000673001331846FEF7F5F897F86730013359
:10222000DB0068333B44603BD3E90023FEF754F9FD
:1022300002460B4610461946D7E91423FEF74CF91F
:1022400002460B46D7E91601FDF790FF02460B4602
:10225000C7E9162397F86730013387F8673097F896
:102260006730042BB9D9D7E91623104619466837C9
:10227000BD46B0BDAFF30080A4703D0AD7A3EC3FCC
:1022800021EA3E00A94DAC3F78D300080000F03FA2
:10229000B0B59AB000AFC7E90001002387F86730F6
:1022A00045A3D3E90023C7E9122345A3D3E90023BB
:1022B000C7E91023444B07F108041D460FCD0FC496
:1022C0000FCD0FC495E80F0084E80F004FF0000217
:1022D0004FF00003C7E90E234FF000024FF0000358
:1022E000C7E916234FF00002384BC7E91423D7E99A
:1022F0001223D7E90001FDF737FF02460B461046CF
:102300001946D7E91023FEF711FA02460B46C7E932
:102310000E23002387F8673041E097F86730002BE1
:102320000BD14FF00002294BC7E914234FF00002F4
:102330004FF00003C7E9162309E0D7E90E23D7E9D8
:102340001401FEF7C9F802460B46C7E9142397F8B3
:10235000673001331846FEF755F897F867300133B8
:10236000DB0068333B44603BD3E90023FEF7B4F85D
:1023700002460B4610461946D7E91423FEF7ACF87F
:1023800002460B46D7E91601FDF7F0FE02460B4662
:10239000C7E9162397F86730013387F8673097F855
:1023A0006730042BB9D9D7E9162310461946683788
:1023B000BD46B0BDAFF300802FDD24068195E13F1F
:1023C000E5D022DBF97EC23FA8D300080000F03F31
:1023D000B0B59AB000AFC7E90001002387F86730B5
:1023E00045A3D3E90023C7E9122345A3D3E900237A
:1023F000C7E91023444B07F108041D460FCD0FC455
:102400000FCD0FC495E80F0084E80F004FF00002D5
:102410004FF00003C7E90E234FF000024FF0000316
:10242000C7E916234FF00002384BC7E91423D7E958
:102430001223D7E90001FDF797FE02460B4610462E
:102440001946D7E91023FEF771F902460B46C7E992
:102450000E23002387F8673041E097F86730002BA0
:102460000BD14FF00002294BC7E914234FF00002B3
:102470004FF00003C7E9162309E0D7E90E23D7E997
:102480001401FEF729F802460B46C7E9142397F812
:10249000673001331846FDF7B5FF97F86730013311
:1024A000DB0068333B44603BD3E90023FEF714F8BC
:1024B00002460B4610461946D7E91423FEF70CF8DE
:1024C00002460B46D7E91601FDF750FE02460B46C1
:1024D000C7E9162397F86730013387F8673097F814
:1024E0006730042BB9D9D7E9162310461946683747
:1024F000BD46B0BDAFF30080333333333333C33F16
:10250000518369183E22B63FD8D300080000F03F3F
:102510002DE9B04388B000AF4FF000024FF0000348
:10252000C7E904234FF000024FF00003C7E902237C
:102530004FF000024FF00003C7E900234D4BB3F802
:1025400010341846FDF74EFF02460B46C7E900233C
:102550000023FB777DE0FB7F474A32F813301846B3
:10256000FDF750FF02460B46D7E90001FEF726FAB9
:102570000346002B6AD0FB7F002B0FD13E4B1B88FC
:102580001846FDF72FFF02460B46C7E902234FF01E
:1025900000024FF00003C7E904235EE0FB7F132B2A
:1025A00044D8FB7F344A32F813301946FB7F013B95
:1025B000314A32F81330CB1A1846FDF723FF024692
:1025C0000B46C7E90223FB7F5A1E13469B001344A8
:1025D0001846FDF717FF04460D46D7E902234FF0D2
:1025E00000002649FEF7A2F802460B46904699469F
:1025F000FB7F013B204A32F813305B421846FDF75F
:1026000001FFD7E90023FDF7B1FD02460B46404626
:102610004946FDF761FF02460B4620462946FDF775
:10262000A5FD02460B46C7E9042316E0124B1B88A2
:102630001846FDF7D7FE02460B46C7E902234FF0C6
:1026400000024FF00003C7E9042306E0FB7F0133DB
:10265000FB77FB7F142B7FF67EAFD7E90401FEF7F3
:10266000D5F903469AB2064B1A8000BF2037BD4603
:10267000BDE8B08398040020000000200000144052
:10268000DC00002080B500AF224B00221A70224BE4
:1026900000221A70214B00221A70214B00221A705E
:1026A000204B00221A70204B00221A704FF48072C7
:1026B00000211E4809F0B2FE4FF4807200211C4830
:1026C00009F0ACFE142200211A4809F0A7FE1A4BAB
:1026D00000221A70194B00221A70194B00221A702E
:1026E000184B00221A70184B00221A704FF4807297
:1026F0000021164809F092FE4FF480720021144820
:1027000009F08CFE14220021124809F087FE00BF58
:1027100080BD00BF9604002097040020700D0020AB
:10272000E71100206C0F0020100B0020100A002081
:1027300038020020B4110020D809002090030020A6
:10274000E5110020440D0020E41100208C0F002032
:10275000780D00209C11002080B500AF89E04A4B25
:102760001B78002B77D0484B00221A70474B1B7800
:102770005A1CD1B2454A11701A46454B9B5C023B2C
:10278000052B7ED801A252F823F000BFA527000830
:10279000CD27000883280008F52700081D28000819
:1027A000452800083B4B9B6B002B07D000210420E1
:1027B00003F086F9374B00229A6303E001210420DD
:1027C00003F07EF9344809F029FD43E0314BDB6B1F
:1027D000002B07D00021082003F072F92D4B0022B6
:1027E000DA6303E00121082003F06AF92B4809F0BD
:1027F00015FD2FE0274B5B6B002B07D0254B0022EC
:102800005A630021002003F05BF903E0012100205E
:1028100003F056F9224809F001FD1BE01D4A002390
:10282000D3631C4A93631B4A53630021042003F0C3
:1028300047F90021082003F043F90021002003F0AC
:102840003FF907E0134B64221A640C21154807F086
:102850007FFE00BF15E00D4B1B785A1CD1B20B4A0E
:1028600011701A460A4B9B5C552B02D1064B012274
:102870001A700D4B1A78054B1B789A427FF46FAF94
:1028800000E000BF00BF80BDDE000020700D002012
:10289000100A00200004004008D4000820D40008DA
:1028A00030D40008281400209704002080B500AF21
:1028B000374B1B78433B102B59D801A252F823F019
:1028C0002F2900084F2900086F2900086F290008E8
:1028D0006F2900086F2900086F2900086F29000878
:1028E0006F2900086F2900086F2900086F29000868
:1028F0006F290008172900086F2900086F290008B0
:1029000005290008224B5B78214A92781146184627
:1029100000F014FF30E01E4B5B78312B03D11D4BD0
:1029200001221A7028E01B4B00221A7024E0184B79
:102930005B78302B03D1002003F048F819E0144BEA
:102940005B78312B15D1012003F040F811E0104BDA
:102950005B78302B03D1002003F04AF80BE00C4BDE
:102960005B78312B07D1012003F042F803E000BF70
:1029700002E000BF00E000BF074B00221A704FF4D6
:1029800080720021024809F049FD00BF80BD00BFF0
:10299000780D002096040020E411002080B5ADF5EC
:1029A000836D00AFD04B1A78D04B1B789A4200F061
:1029B0000B82CE4B1B785A1CD1B2CC4A11701A46EE
:1029C000CB4B9B5C87F80F3497F80F34303B87F87C
:1029D0000E3497F90F34382B4ADC302B4DDAF2E104
:1029E000533B202BDED801A252F823F08F2D000894
:1029F000A5290008A5290008A5290008A52900087F
:102A0000A5290008A5290008A5290008A52900086E
:102A1000A5290008A5290008A5290008A52900085E
:102A2000A5290008A52900080D2B0008A5290008E4
:102A3000A5290008A52900087B2B0008A529000866
:102A4000A5290008A5290008A5290008A52900082E
:102A5000A5290008A5290008A5290008A52900081E
:102A6000A5290008A52900086D2C0008BB2C00082A
:102A7000732B97DC532BB3DAA5E197F80E349D4AFC
:102A8000134493F82634012B0DD197F80E3400210E
:102A9000184600F0D9FD97F80E34964A13440022E8
:102AA00083F826240CE097F80E340121184600F034
:102AB000CBFD97F80E348F4A1344012283F8262465
:102AC00007F204431A460221012000F069FC8A48FB
:102AD00009F036FB002387F817340FE097F8173416
:102AE00003F583633B4413F8143C1946834809F00B
:102AF00027FB97F81734013387F8173497F8173402
:102B0000062BEBD97E4809F089FB5CE17D4B93F8FD
:102B10002830002B29D07C4809F080FB794B00221B
:102B200083F82820002387F8173419E097F8173422
:102B3000704A134493F82634002B0CD097F81734BE
:102B40000021184600F080FD97F81734694A1344B5
:102B5000002283F8262497F81734013387F81734B6
:102B600097F81734062BE1D92DE1684809F056FB98
:102B7000644B012283F8282025E13B1D4FF480623D
:102B80001946002003F0BAF807F58363A3F2144353
:102B900045221A7007F58363A3F214434E225A703C
:102BA00007F58363A3F2144344229A7007F5836305
:102BB000A3F214435F22DA7007F58363A3F2144390
:102BC0004F221A7107F58363A3F2144346225A7108
:102BD00007F58363A3F214435F229A7107F58363B9
:102BE000A3F214434622DA7107F58363A3F2144378
:102BF0004C221A7207F58363A3F2144341225A72DE
:102C000007F58363A3F2144353229A7207F5836393
:102C1000A3F214434822DA7207F58363A3F2144344
:102C20005F221A7307F58363A3F214434D225A738C
:102C300007F58363A3F2144345229A7307F5836370
:102C4000A3F214434D22DA733B1D102219464FF4B0
:102C50007C7003F077F82E4809F0E0FA3B1D4FF442
:102C600080621946002003F049F8ACE03B1D1022B9
:102C700019464FF47C7003F041F8264809F060FAD9
:102C80000023C7F8103410E007F58363A3F2144261
:102C9000D7F8103413441B781946184809F050FA35
:102CA000D7F810340133C7F81034D7F810340F2B8D
:102CB000EADD134809F0B2FA85E0002387F81734FB
:102CC00036E097F808341A4697F8173442FA03F3B7
:102CD00003F00103002B1FD097F81734054A134463
:102CE000012283F826241EE098110020110B0020F9
:102CF0009403002098040020A4D40008B8D400084D
:102D00009CD4000860030020C0D40008D8D4000878
:102D1000F0D40008FCD4000897F817342D4A134467
:102D2000002283F8262497F81734013387F81734E4
:102D300097F81734062BC4D997F8093403F0010328
:102D4000002B04D0234B012283F82E2403E0214BD7
:102D5000002283F82E24002387F817340FE097F819
:102D6000173403F583633B4413F8143C19461A489F
:102D700009F0E6F997F81734013387F8173497F814
:102D80001734072BEBD9154809F048FA1BE000234C
:102D900087F817340EE097F817340E4A134493F867
:102DA000263419460E4809F0CBF997F81734013349
:102DB00087F8173497F81734082BECD9074809F02F
:102DC0002DFA00BFEEE5EDE500BF00BF07F5836714
:102DD000BD4680BD98040020B8D400089CD40008EB
:102DE0000CD5000880B500AF164B00221A70164BA8
:102DF00000221A70154B00221A70154B00221A700F
:102E0000144B00221A704FF480720021124809F00E
:102E100005FB4FF480720021104809F0FFFA1422DC
:102E200000210F4809F0FAFA00224FF400710D4812
:102E300005F05FFE00224FF480710A4805F059FE4C
:102E400000BF80BDB0110020E61100208C100020D2
:102E5000880F0020120B002090100020D8080020BE
:102E60002C0C0020000C014080B500AF094B1B78F2
:102E7000002B02D0012B02D002E000BF00E000BF17
:102E800000F00AF84FF480720021024809F0C6FAF7
:102E900000BF80BDD808002080B500AF01224FF4EC
:102EA0000071104805F025FE01224FF480710D4895
:102EB00005F01FFE64234FF480720B490B4808F0A5
:102EC00067FA00224FF48071064805F012FE0022D6
:102ED0004FF40071034805F00CFE054B00221A70F8
:102EE00000BF80BD000C0140D8080020B8140020AD
:102EF000120B00200000000090B587B002AF4FF029
:102F000000037B604FF00003BB604FF000033B60A9
:102F1000314B1B781946314B1B781A46304B1B78C6
:102F2000304809F00DF90123FB7334E0FB7B013BD2
:102F30002D4A03F5007332F813301846FDF762FA94
:102F400023A3D3E90023FDF7F1FB02460B4610460D
:102F50001946FDF77BFD03467B607968B868FDF78D
:102F6000CBFD0346BB60FB7B013B1F4A134493F838
:102F70002634002B02D02A2009F0F4F8FC7B786874
:102F8000FDF752FA02460B462146184809F0D8F8D8
:102F9000FB7B0133FB73FB7B072BC7D91449B86854
:102FA000FDF766FF03463B603868FDF73DFA114BBD
:102FB000D3E90223CDE9002302460B460E4809F06F
:102FC000BFF800BF1437BD4690BD00BFAFF300800F
:102FD000000000000088C340AA130020A8130020AE
:102FE000A913002010D500089804002024D500085B
:102FF0000000E0406003002030D5000880B500AF3D
:103000004FF488620021084809F008FA30220021B4
:10301000064809F003FA00F085FC00F0BDFC00F062
:10302000DDFD00BF80BD00BF9804002060030020CC
:1030300080B582B000AF03233B7060237B703B46BA
:103040001946022000F0E6FC0346FB80FB881B0AC1
:103050009BB2DBB2BB70FB88DBB2FB7000F0E2FD21
:1030600000221021084805F044FD3B461946042083
:1030700000F0ECFD01221021034805F03AFD00BFED
:103080000837BD4680BD00BF0008014080B584B050
:1030900000AF03463A60FB710B46BB710823FB731C
:1030A000FB79012B04D104237B7200233B7216E0D1
:1030B000FB79022B04D106237B7200233B720EE0C6
:1030C000FB79032B04D108237B7200233B7206E0BB
:1030D000FB79042B03D10A237B7200233B7207F197
:1030E00008031946022000F095FC0346BB81BB890A
:1030F0001B0A9BB2DBB2BB72BB89DBB2FB7200F076
:1031000091FD00F08FFD00F08DFD002210214A4856
:1031100005F0EFFCFB7BBA7902FB03F3DBB207F1AE
:1031200008003A68042100F0B1FD01221021424854
:1031300005F0DFFCFB79012B2BD13B6801331B78B9
:103140009BB21B029AB23B681B789BB213449AB2A3
:103150003A4BA3F800243B6803331B789BB21B0255
:103160009AB23B6802331B789BB213449AB2334B3A
:10317000A3F802243B6805331B789BB21B029AB26A
:103180003B6804331B789BB213449AB22B4BA3F8D1
:103190000424FB79022B2BD13B6801331B789BB2B3
:1031A0001B029AB23B681B789BB213449AB2234B22
:1031B000A3F806243B6803331B789BB21B029AB228
:1031C0003B6802331B789BB213449AB21B4BA3F8A3
:1031D00008243B6805331B789BB21B029AB23B68FC
:1031E00004331B789BB213449AB2144BA3F80A24FD
:1031F000FB79032B1CD13B6801331B789BB21B026C
:103200009AB23B681B789BB213449AB20B4BA3F85B
:103210000C243B6803331B789BB21B029AB23B68B9
:1032200002331B789BB213449AB2044BA3F80E24CA
:1032300000BF1037BD4680BD000801409804002043
:1032400080B5A4B000AF03463A60FB710B46BB717A
:10325000062387F88C30FB79DB00DBB2043387F878
:103260008B30BB79012B04D100233B7201237B728D
:1032700006E0BB79022B03D100233B7224237B722F
:1032800007F108031946022000F0C4FB0346A7F823
:103290008830B7F888301B0A9BB2DBB2BB72B7F834
:1032A0008830DBB2FB72042387F88F30FB7987F814
:1032B0008E3055E0002387F88D301AE097F88E3075
:1032C00003F10053013BDB003A68D11897F88D20D9
:1032D00097F88F308A5C90333B4403F8882C97F83A
:1032E0008F30013387F88F3097F88D30013387F8AE
:1032F0008D3097F88D2097F88C309A42DED397F86E
:103300008E3003F10053013BDB003A68134418464A
:1033100097F88C301A46002100F0AEFB0346A7F860
:103320008630B7F886301B0A9AB297F88F30D2B23F
:1033300090333B4403F8882C97F88F300133B7F86B
:103340008620D2B290333B4403F8882C97F88F3014
:10335000023387F88F3097F88E30013B87F88E3034
:1033600097F88E30002BA5D100F05CFC00F05AFCE1
:1033700000221021094805F0BCFB07F1080297F86C
:103380008B301146184600F061FC012210210348E1
:1033900005F0AFFB00BF9037BD4680BD000801407F
:1033A00080B58CB000AF03463A60FB710B46BB7131
:1033B000082387F82C30002387F82F30BB79012BA6
:1033C00006D1002387F82030022387F8213008E057
:1033D000BB79022B05D1002387F82030262387F8FC
:1033E000213007F120031946022000F013FB0346A9
:1033F0007B857B8D1B0A9BB2DBB287F822307B8DED
:10340000DBB287F8233000F00DFC00F00BFC00224B
:1034100010213A4805F06DFB97F82C30FA7902FB41
:1034200003F3DBB207F10C0207F12000042100F0E6
:103430002DFC01221021314805F05BFB002387F8A9
:103440002E304FE0002387F82D3019E097F82D201B
:1034500097F82E3097F82C1001FB03F3D11897F84A
:103460002E30DB003A681A4497F82D303031394459
:1034700011F8241CD15497F82D30013387F82D30E2
:1034800097F82D2097F82C309A42DFD397F82E30FA
:10349000DB003A6813449B791B029BB203F4407330
:1034A0009AB297F82E30DB0039680B44DB799BB277
:1034B00013443B8597F82E30DB003A68134406220C
:1034C0000121184600F0D8FA0346FB843A8DFB8CA4
:1034D0009A4202D0FF2387F82F3097F82E3001331D
:1034E00087F82E3097F82E20FB799A42AAD397F9C5
:1034F0002F3018463037BD4680BD00BF0008014060
:1035000080B5A4B000AF03463960FB71062387F88D
:103510008C30FB79DB00DBB2043387F88B3000237F
:103520003B7220237B7207F108031946022000F04A
:1035300071FA0346A7F88830B7F888301B0A9BB2A7
:10354000DBB2BB72B7F88830DBB2FB72042387F8BA
:103550008F30FB7987F88E3055E0002387F88D3067
:103560001AE097F88E3003F10053013BDB003A6814
:10357000D11897F88D2097F88F308A5C90333B44B0
:1035800003F8882C97F88F30013387F88F3097F83D
:103590008D30013387F88D3097F88D2097F88C3077
:1035A0009A42DED397F88E3003F10053013BDB00E3
:1035B0003A681344184697F88C301A46002100F0F8
:1035C0005BFA0346A7F88630B7F886301B0A9AB232
:1035D00097F88F30D2B290333B4403F8882C97F899
:1035E0008F300133B7F88620D2B290333B4403F8D2
:1035F000882C97F88F30023387F88F3097F88E3009
:10360000013B87F88E3097F88E30002BA5D100F063
:1036100009FB00F007FB002210210A4805F069FAB7
:1036200007F1080297F88B301146184600F00EFBA0
:1036300001221021034805F05CFA00BF9037BD4617
:1036400080BD00BF0008014080B586B000AF0346D2
:103650000A46FB711346BB71FB79BA7919463348A8
:1036600008F06EFD07F108031A4602210120FFF75A
:1036700097FE2F4808F064FD00237B610BE007F103
:1036800008027B6913441B7819462A4808F058FD44
:103690007B6901337B617B69062BF0DD264808F0EE
:1036A000BDFDBB79002B0BD03B7B5AB2FB790121CE
:1036B00001FA03F35BB213435BB2DBB23B730BE083
:1036C0003B7B5AB2FB796FF0010101FA03F35BB265
:1036D00013405BB2DBB23B73154808F031FD0023A9
:1036E0003B610BE007F108023B6913441B78194664
:1036F000104808F025FD3B6901333B613B69062B0F
:10370000F0DD0D4808F08AFD07F108031A46022192
:103710000120FFF795FD07F108031A460221012059
:10372000FFF73EFE00BF1837BD4680BD60D50008DC
:1037300074D5000888D5000858D5000880B582B037
:1037400000AF03460A46FB711346BB71FB79072B9A
:1037500000F2CC8001A252F823F000BF7D370008B0
:10376000AB370008D937000807380008353800089B
:103770006338000891380008BF380008BB79002B77
:1037800009D0664B93F8383443F00F03DAB2634B39
:1037900083F83824AAE0614B93F8383423F00F0300
:1037A000DAB25E4B83F83824A0E0BB79002B09D055
:1037B0005A4B93F8383463F00F03DAB2574B83F85F
:1037C000382493E0554B93F8383403F00F03DAB202
:1037D000524B83F8382489E0BB79002B09D04F4B3A
:1037E00093F8393443F00F03DAB24C4B83F83924A1
:1037F0007CE04A4B93F8393423F00F03DAB2474B9D
:1038000083F8392472E0BB79002B09D0434B93F83D
:10381000393463F00F03DAB2404B83F8392465E0A2
:103820003E4B93F8393403F00F03DAB23B4B83F885
:1038300039245BE0BB79002B09D0384B93F83A343C
:1038400043F00F03DAB2354B83F83A244EE0334BA2
:1038500093F83A3423F00F03DAB2304B83F83A246A
:1038600044E0BB79002B09D02C4B93F83A3463F039
:103870000F03DAB2294B83F83A2437E0274B93F849
:103880003A3403F00F03DAB2244B83F83A242DE0E4
:10389000BB79002B09D0214B93F83B3443F00F0345
:1038A000DAB21E4B83F83B2420E01C4B93F83B34E8
:1038B00023F00F03DAB2194B83F83B2416E0BB79EF
:1038C000002B09D0154B93F83B3463F00F03DAB2A9
:1038D000124B83F83B2408E0104B93F83B3403F081
:1038E0000F03DAB20D4B83F83B2400BFBB79002BEA
:1038F00006D0FB79094A1344012283F8262405E007
:10390000FB79064A1344002283F826240449012047
:10391000FFF7F6FD00BF0837BD4680BD98040020C4
:10392000D008002080B485B000AF44F299537B806A
:103930000023BB6025E0BB68DB01FB8108237B60C3
:1039400014E0FB8903F48043002B08D0B7F90E3054
:103950005B00FB81FA897B885340FB8103E0B7F968
:103960000E305B00FB817B68013B7B607B68002B3A
:10397000E7DC0849BB68FA8921F81320BB680133EA
:10398000BB60BB68FF2BD6DD00BF00BF1437BD4650
:1039900080BC70479804002080B485B000AF8F23AE
:1039A0007B800023BB602AE0BB689B00FB8108236F
:1039B0007B6014E0FB8903F40073002B08D0B7F997
:1039C0000E305B00FB81FA897B885340FB8103E06A
:1039D000B7F90E305B00FB817B68013B7B607B6845
:1039E000002BE7DCFB89C3F3090319B2084ABB6863
:1039F00003F5807322F81310BB680133BB60BB680A
:103A0000FF2BD1DD00BF00BF1437BD4680BC70471F
:103A10009804002080B485B000AF03463960FB7184
:103A20001023FB8100237B7318E0FB89DB099AB22A
:103A30007B7B39680B441B789BB253409BB2DBB253
:103A40007B81FB891B021AB27B890A4931F9133049
:103A500053401BB2FB817B7B01337B737A7BFB7909
:103A60009A42E2D3FB895B009BB218461437BD46ED
:103A700080BC70479804002080B485B000AF7860A7
:103A80000B46FB701346BB701023FB818F237B8199
:103A900000237B731BE0FB899B089AB27B7B7968D0
:103AA0000B441B789BB253409BB2DBB23B81FB893A
:103AB0001B029BB21AB23B89214903F5807331F98D
:103AC000133053401BB2FB817B7B01337B737A7BCA
:103AD000BB789A42DFD3FB78012B0FD1BB787A6891
:103AE00013441B789BB29B009BB21BB203F47C7304
:103AF0001AB2B7F90E3053401BB2FB8106233B7359
:103B000012E0FB8903F40073002B07D0FB895B00F4
:103B1000FB81FA897B895340FB8102E0FB895B00D2
:103B2000FB813B7B013B3B733B7B002BE9D1FB895A
:103B3000C3F309039BB218461437BD4680BC7047D7
:103B40009804002080B592B000AF00233B64FFF7DB
:103B50006FFA3B461A4601210120FFF797FA3B46D0
:103B60001A4601210220FFF791FA3B461A4601212D
:103B70000320FFF78BFA002387F847300FE097F810
:103B80004730134A03F5007332F813301A463B6C82
:103B900013443B6497F84730013387F8473097F870
:103BA0004730072BEBD93A6C0A4BA3FB0213D21A0E
:103BB000520813449B089AB2054BA3F81024044BF7
:103BC000B3F81024044BDA8300BF4837BD4680BDEC
:103BD00098040020254992246003002080B582B01B
:103BE00000AF0023FB7112E0FB7900211846FFF7BC
:103BF0002BFDFB7900211846FFF7A0FDFB79084A51
:103C00001344002283F82624FB790133FB71FB79EE
:103C1000062BE9D900BF00BF0837BD4680BD00BFF5
:103C20009804002080B500AF00221021064804F05F
:103C300060FF0A2002F0BAFE01221021024804F0BF
:103C400058FF00BF80BD00BF0008014080B584B0B0
:103C500000AF03463960FB710023FB730BE0FB7B75
:103C60003A68D1184FF47A730122074805F0DDFF56
:103C7000FB7B0133FB73FA7BFB799A42EFD300BFE6
:103C800000BF1037BD4680BDC013002080B588B08E
:103C900002AFF8607A601A460B46FB721346BB729D
:103CA0000023FB750BE0FB7DFA68D1184FF47A73A3
:103CB0000122154805F0B9FFFB7D0133FB75FA7D44
:103CC000FB7A9A42EFD30023FB7514E0FB7DFA6880
:103CD000134400221A70FB7DFA68D118FB7D7A68C4
:103CE0001A444FF47A7300930123074806F0E0F872
:103CF000FB7D0133FB75FA7DBB7A9A42E6D300BFA8
:103D000000BF1837BD4680BDC013002080B584B009
:103D100000AF3B1D00221A605A609A602E4B2F4A5A
:103D20001A602D4B4FF480729A602B4B01221A734C
:103D3000294B00221A75284B4FF46022DA61264B7A
:103D400000225A60244B04221A61234802F052FEDA
:103D50000346002B01D001F006F90C237B60012300
:103D6000BB600223FB603B1D19461B4803F014F89F
:103D70000346002B01D001F0F6F80D237B600223EF
:103D8000BB603B1D1946144803F006F80346002BA0
:103D900001D001F0E8F801237B600323BB603B1DE9
:103DA00019460D4802F0F8FF0346002B01D001F040
:103DB000DAF80B237B600423BB603B1D19460648E1
:103DC00002F0EAFF0346002B01D001F0CCF800BF5F
:103DD0001037BD4680BD00BFB8120020002401404E
:103DE00080B58AB000AF786007F1180300221A602E
:103DF0005A609A60DA607B681B68334A93425FD1ED
:103E0000324B9B69314A43F4007393612F4B9B699A
:103E100003F400737B617B692C4B9B692B4A43F055
:103E200010039361294B9B6903F010033B613B69CD
:103E3000264B9B69254A43F004039361234B9B69FE
:103E400003F00403FB60FB680E23BB610323FB61EB
:103E500007F1180319461E4804F0B0FC0223BB61A9
:103E60000323FB6107F1180319461A4804F0A6FC66
:103E7000194B1A4A1A60184B00225A60164B00223E
:103E80009A60154B8022DA60134B4FF480721A61EE
:103E9000114B4FF480625A610F4B20229A610E4BF6
:103EA0000022DA610C4803F0E7FF0346002B01D043
:103EB00001F059F87B68084A1A62074A7B68536226
:103EC00000BF2837BD4680BD0024014000100240DD
:103ED0000010014000080140E812002008000240E4
:103EE00080B58AB000AF4FF6FF73BB843B1D002244
:103EF0001A605A609A60DA601A615A619A61002306
:103F000087F8273032E097F82730B54A134493F802
:103F10002634002B0CD097F8273000211846FFF7E5
:103F200093FB97F82730AE4A1344002283F82624E7
:103F300097F8273097F8272092B207335B00283391
:103F40003B4423F8242C97F8272097F82730A449DE
:103F500002F5007231F812205B0028333B4423F84D
:103F6000242C97F82730013387F8273097F827302B
:103F7000062BC8D9FFF7E6FD002387F8273068E055
:103F8000002387F826305BE097F826305B00283363
:103F90003B4433F8242C97F8263001335B00283358
:103FA0003B4433F8243C9A4245D297F826305B00D4
:103FB00028333B4433F8243C7B8497F8263007337E
:103FC0005B0028333B4433F8243C3B8497F826308D
:103FD000013397F826205B0028333B4433F8241C38
:103FE000530028333B440A4623F8242C97F8263004
:103FF000013397F8262007335B0028333B4433F81E
:10400000241CD31D5B0028333B440A4623F8242C90
:1040100097F8263001335B0028333B447A8C23F831
:10402000242C97F82630013307335B0028333B44B8
:104030003A8C23F8242C97F82630013387F8263061
:1040400097F82630052B9FD997F82730013387F84A
:10405000273097F82730062B92D93B8ABB84002360
:1040600087F8273097E097F827305B0028333B44E8
:1040700033F8243C49F63F42934240F2878097F858
:1040800027305B0028333B4433F8243C1A46BB8C72
:10409000D31A0A2B7ADD97F8273007335B002833D1
:1040A0003B4433F8243C002B1CD197F827300733CE
:1040B0005B0028333B4433F8243C0133484A134423
:1040C00093F82634002B0DD197F8273007335B0087
:1040D00028333B4433F8243C1A46414B1344012215
:1040E00083F8262497F8273007335B0028333B44B6
:1040F00033F8243C062B1DD197F8273007335B009B
:1041000028333B4433F8243C013B354A134493F8AD
:104110002634002B3AD197F8273007335B00283339
:104120003B4433F8243C1A462D4B1344012283F8B8
:1041300026242BE097F8273007335B0028333B44D5
:1041400033F8243C013B264A134493F82634002BD1
:104150001CD197F8273007335B0028333B4433F8F2
:10416000243C01331E4A134493F82634002B0DD10E
:1041700097F8273007335B0028333B4433F8243C5F
:104180001A46174B1344012283F8262497F8273048
:10419000013387F8273097F82730062B7FF663AF77
:1041A000002387F8273012E097F827300C4A134491
:1041B00093F82634002B05D097F8273001211846B4
:1041C000FFF742FA97F82730013387F8273097F83E
:1041D0002730062BE8D900BF00BF2837BD4680BD79
:1041E0009804002090B593B000AF002387F84730C3
:1041F0001D4BB3F810241D4B1A801D4BB3F9002042
:104200001A4B5A801B4BD3E902014FF000021A4BA4
:10421000FCF762F902460B4610461946FCF7F6FB1E
:1042200003469AB2114B9A80002387F8463012E079
:1042300097F8462097F846300B4902F5007231F89E
:1042400012100A4A5B0013440A46DA8097F8463097
:10425000013387F8463097F84630072BE8D900231A
:1042600087F846303CE000BF98040020DC090020BD
:10427000400C0020600300200000594097F84630B1
:1042800097F84620DC4908335B000B44B3F904007F
:10429000DA4902F108035B000B440246DA8097F822
:1042A000462097F84630D4490C3231F91210D34ADF
:1042B0000C335B0013440A465A8097F8462097F85F
:1042C0004630CD49083231F91210CC4A0C335B002C
:1042D00013440A46DA8097F84630013387F84630AF
:1042E00097F84630012BC9D9C34BB3F91C20C34BF7
:1042F0005A84C14B1B68C14A5362002387F8473078
:1043000097F847305A1C87F8472048333B44AA2285
:1043100003F8442C97F847305A1C87F84720483355
:104320003B44002203F8442C97F847305A1C87F886
:10433000472048333B44012203F8442C97F8473088
:104340005A1C87F8472048333B44002203F8442C8A
:1043500097F847305A1C87F847201C464021A84848
:1043600004F0B0FB03461A4604F148033B4403F84B
:10437000442C97F847305A1C87F847201C464FF4C6
:104380008051A04804F09EFB03461A4604F14803FE
:104390003B4403F8442C97F847305A1C87F84720D1
:1043A00048333B44002203F8442C97F847305A1C0A
:1043B00087F847201C468021914804F083FB034680
:1043C0001A4604F148033B4403F8442C97F847305D
:1043D0005A1C87F8472048333B44AA2203F8442C50
:1043E00097F847305A1C87F8472048333B4402224D
:1043F00003F8442C97F847305A1C87F84720194691
:104400007E4BDA7D01F148033B4403F8442C97F8D6
:1044100047305A1C87F847201946784B9A7D01F19E
:1044200048033B4403F8442C97F847305A1C87F85C
:1044300047201946714B5A7E01F148033B4403F86B
:10444000442C97F847305A1C87F8472019466B4B85
:104450001A7E01F148033B4403F8442C97F8473097
:104460005A1C87F847201946644BDA7E01F148034D
:104470003B4403F8442C97F847305A1C87F84720F0
:1044800019465E4B9A7E01F148033B4403F8442CE5
:1044900097F847305A1C87F847201946574B5A7FE0
:1044A00001F148033B4403F8442C97F847305A1C69
:1044B00087F847201946514B1A7F01F148033B44C6
:1044C00003F8442C97F847305A1C87F847201946C0
:1044D0004A4BDA7F01F148033B4403F8442C97F838
:1044E00047305A1C87F847201946444B9A7F01F100
:1044F00048033B4403F8442C97F847305A1C87F88C
:10450000472019463D4B93F8212001F148033B44D5
:1045100003F8442C97F847305A1C87F8472019466F
:10452000364B93F8202001F148033B4403F8442C18
:1045300097F847305A1C87F8472048333B440022FD
:1045400003F8442C97F847305A1C87F84720483323
:104550003B44002203F8442C97F847305A1C87F854
:10456000472048333B44AA2203F8442C97F84730AD
:104570005A1C87F8472048333B44042203F8442C54
:10458000002387F8463026E097F8462097F8473012
:10459000591C87F847101846184953000B44DA791C
:1045A00000F148033B4403F8442C97F8462097F861
:1045B0004730591C87F847101846104953000B44E0
:1045C0009A7900F148033B4403F8442C97F84630AD
:1045D000013387F8463097F84630062BD4D997F840
:1045E00047309AB2391D6423074806F0D1FE00BF58
:1045F0004C37BD4690BD00BF60030020DC090020A1
:10460000000C0140001001400015002080B500AFF3
:10461000174B184A1A60164B09225A60144B002295
:104620009A60134B0022DA60114B4FF480221A611A
:104630000F4B4FF480125A610D4B00221A760C4B2F
:1046400000225A760A4B00229A76094B0022DA762B
:10465000074B00221A77064B00225A77044802F0D3
:1046600094FD0346002B01D000F07DFC00BF80BD0F
:104670002C1300200064004080B588B000AF786043
:1046800007F1100300221A605A609A60DA607B68B2
:104690001B681C4A934231D11B4BDB691A4A43F019
:1046A0000073D361184BDB6903F00073FB60FB6898
:1046B000154B9B69144A43F004039361124B9B69A9
:1046C00003F00403BB60BB684FF400633B6100234D
:1046D0007B610023BB6107F1100319460B4804F00E
:1046E0006DF84FF480533B6102237B610323FB6130
:1046F00007F110031946054804F060F800BF2037A1
:10470000BD4680BD0064004000100240000801402A
:1047100080B582B000AF0C4B5B690B4A43F00103DC
:104720005361094B5B6903F001037B607B680022E6
:1047300000210B2003F069FB0B2003F082FB00BF7C
:104740000837BD4680BD00BF0010024080B588B06C
:1047500000AF07F1100300221A605A609A60DA6015
:10476000604B9B695F4A43F0100393615D4B9B690B
:1047700003F01003FB60FB685A4B9B69594A43F0F6
:1047800020039361574B9B6903F02003BB60BB6818
:10479000544B9B69534A43F004039361514B9B690B
:1047A00003F004037B607B684E4B9B694D4A43F0EA
:1047B000080393614B4B9B6903F008033B603B6824
:1047C00000224FF44041484804F093F9012210219F
:1047D000464804F08EF9002240F23331444804F098
:1047E00088F943F220033B6100237B610223BB6114
:1047F00007F1100319463C4803F0E0FF4FF4404333
:104800003B6101237B610023BB610223FB6107F154
:1048100010031946344803F0D1FF11233B610323F1
:104820007B6107F1100319462F4803F0C7FF0123EE
:104830003B6103237B6107F1100319462B4803F00A
:10484000BDFF10233B6101237B610123BB61022378
:10485000FB6107F110031946244803F0AFFF40F253
:1048600033333B6101237B610023BB610223FB6186
:1048700007F1100319461E4803F0A0FF04233B6113
:1048800000237B610023BB6107F110031946184820
:1048900003F094FF4FF2C0033B6100237B610223CE
:1048A000BB6107F110031946114803F087FF4FF46D
:1048B00001433B6100237B610223BB6107F11003CD
:1048C00019460A4803F07AFF04233B6103237B6106
:1048D00007F110031946074803F070FF00BF2037A7
:1048E000BD4680BD0010024000100140000801409C
:1048F000000C01400014014080B500AF124B134A78
:104900001A60114B124A5A600F4B00229A600E4BEC
:104910000022DA600C4B4FF480421A610A4B0022ED
:104920005A61094B00229A61074B0022DA61064B5B
:1049300000221A62044804F00DF90346002B01D04E
:1049400000F011FB00BF80BD541300200058004050
:10495000A086010080B588B000AF786007F1100331
:1049600000221A605A609A60DA607B681B68164AF7
:10497000934224D1154B9B69144A43F00803936179
:10498000124B9B6903F00803FB60FB684FF4406324
:104990003B6112237B610323FB6107F1100319467E
:1049A0000B4803F00BFF094BDB69084A43F4800313
:1049B000D361064BDB6903F48003BB60BB6800BFB7
:1049C0002037BD4680BD00BF0058004000100240A7
:1049D000000C014080B582B000AF7860391D4FF007
:1049E000FF330122034806F0D3FC7B6818460837E2
:1049F000BD4680BD4815002080B500AF01F074FFB2
:104A000000F0DCF8FFF7A2FEFFF782FE01F01EFEC9
:104A1000FFF77CF9FFF7FAFD01F0BCFA01F0ECFDBD
:104A200001F03EFE01F0CEFCFFF766FF01F07CFCDA
:104A300001F070FA00F022F9642001F0B7FF494854
:104A400005F0DCFC01224849484806F024FD01221B
:104A50004749484806F01FFD01224749474806F0EC
:104A60001AFDFEF7CBFA00F065FB4FF47A7001F007
:104A70009DFF00F0FFFE00F07BFAFDF703FEFEF75E
:104A8000B1F900F047FF642001F090FF3C4B1B7828
:104A90001846FCF7EFFA012000F0BCFFFFF752F8D0
:104AA000384B01221A70384807F0B8FB374B002208
:104AB0001A70364B1A78364B1A70354B1A78354BBC
:104AC0001A70FDF749FE344B1B78002B01D0FDF71F
:104AD000EDFE324B1B78002B01D0FEF7C5F9304BB1
:104AE0001B78002B01D0FCF7FDFAFDF757FF2D4B8B
:104AF0001B78002B11D0FCF767FB2B4BD3E900018F
:104B00004FF00002294BFBF7E7FC02460B46284911
:104B1000C1E90223234B00221A70264B1B78002B7D
:104B200018D001F08BF8224B93F82830002B02D0DC
:104B3000FFF7D6F901E0FFF705F800F009FBFFF7F2
:104B400051FBFEF7D9F910211B4803F0EAFF194B7E
:104B500000221A700B4B1B78002BB2D0094B00229D
:104B60001A70AEE770140020E71100200015002035
:104B7000E5110020481500208C100020B8140020FA
:104B8000780E002018140020A0D50008A9130020DA
:104B9000A8130020AA130020E4110020120B00200B
:104BA0009103002019140020C0000020000059408B
:104BB0006003002020140020000C014080B594B058
:104BC00000AF07F1280328220021184607F026FC31
:104BD00007F1140300221A605A609A60DA601A61C1
:104BE0003B1D00221A605A609A60DA600923BB629A
:104BF0004FF48033FB6200233B630123BB6301233B
:104C00003B6402237B644FF48033BB644FF4E013B6
:104C1000FB6407F12803184604F0FEF80346002B56
:104C200001D000F0A0F90F237B610223BB610023B8
:104C3000FB614FF480633B6200237B6207F1140346
:104C40000221184604F06AFB0346002B01D000F055
:104C50008AF903237B604FF40073BB604FF4404339
:104C6000FB603B1D184604F0E7FC0346002B01D017
:104C700000F079F900BF5037BD4680BD80B500AF68
:104C800000220021142003F0C0F8142003F0D9F80A
:104C900000220021252003F0B8F8252003F0D1F8E8
:104CA00000220021262003F0B0F8262003F0C9F8E6
:104CB00000220021272003F0A8F8272003F0C1F8E4
:104CC00000BF80BD80B584B000AF78607B681B6892
:104CD000504A934210D1504B1B785A1CD1B24E4AC5
:104CE00011701A464D4B19784D4B995401224B497E
:104CF0004C4806F0D0FB89E07B681B684A4A934227
:104D000045D14A4B1B78013B494AD25C494B1A704A
:104D1000464B1B785A1CD1B2444A11701A46464B76
:104D20001978434B9954454B1B785A1CD1B2434ACE
:104D300011701A46404B1978414B99543E4B1B78E1
:104D40000A2B1ED13B4B1B780D2B1AD10023FB7372
:104D50003C4B01221A700EE03B4B1B785A1CD1B21F
:104D6000394A11701946FB7B5A1CFA731A46304BAC
:104D7000595C364B99542D4B1A78334B1B789A4219
:104D8000EAD101222C49324806F085FB3EE07B68DF
:104D90001B68304A934239D12F4B1B78013B2F4A75
:104DA000D25C2F4B1A702C4B1B785A1CD1B22A4A5A
:104DB00011701A462B4B1978284B9954294B1B78A4
:104DC0000A2B1ED1264B1B780D2B1AD10023BB7347
:104DD000254B01221A700EE0244B1B785A1CD1B2CD
:104DE000224A11701946BB7B5A1CBA731A461B4BD8
:104DF000595C1F4B9954184B1A781C4B1B789A42DC
:104E0000EAD1012217491B4806F045FB00BF1037C5
:104E1000BD4680BD0038014097040020E711002006
:104E2000100A00200015002000440040D80900208E
:104E30008C0F0020440D0020E51100209811002067
:104E400094030020E411002090030020780D00203E
:104E50004815002000480040B011002090100020AC
:104E6000880F00208C100020120B0020E61100207B
:104E7000D8080020B814002080B582B000AF786058
:104E8000084B094A0021786802F087FB0346002B93
:104E900001D000F068F8054B01221A7000BF0837F6
:104EA000BD4680BD90110020540D002091030020CC
:104EB00080B582B000AF78607B681A681B4B1B68B6
:104EC0009A422FD11A4B1B680133194A1360194BB0
:104ED00001221A70164B1968174BA3FB0123DA083D
:104EE00013469B0013445B00CA1A002A1AD1134BC5
:104EF00001221A70124B1B680133114A136000F033
:104F0000D1FE0F4B19680C4BA3FB01239A081346E3
:104F10009B001344CA1A002A02D10A4B01221A70BC
:104F200000F02AFE00BF0837BD4680BD7014002087
:104F30001C14002019140020CDCCCCCC201400204F
:104F4000241400201814002080B483B000AF7860CF
:104F500000BF0C37BD4680BC704780B400AF00BFB7
:104F6000BD4680BC704780B400AF72B600BFFEE79C
:104F700080B5D0B000AF07F1F0033C220021184605
:104F800007F04CFA0023C7F83C3107F5A073A3F5EE
:104F9000A0731846F0231A46002107F03FFA07F5E0
:104FA000A073A3F5A0735C4A18461146F0231A4675
:104FB00007F0AEFA0023C7F8383116E0D7F83831D9
:104FC0009B009A1C07F5A073A3F5A07333F8122079
:104FD000D7F838315B0003F5A0733B4423F8502C1D
:104FE000D7F838310133C7F83831D7F838311D2BAD
:104FF000E4DD07F1F0031D220021184600F0CAFB92
:105000000A23C7F8343112E0D7F834315B0003F5D6
:10501000A0733B4433F8503C1A46D7F83C31134454
:10502000C7F83C31D7F834310133C7F83431D7F8F9
:105030003431132BE8DDD7F83C31384AA2FB032387
:10504000DB081846FBF7CEF92FA3D3E90023FBF7C3
:1050500043FA02460B46104619462DA3D3E9002316
:10506000FBF764FB02460B4610461946FBF7EEFCC5
:105070000346C7F830312A4B41F6EE321A80284BEE
:1050800042F210725A80264B264A5A60264BC7F8C5
:105090002C31234B5B68D7F82C111846FBF734FEF4
:1050A00003461A461E4B5A601D4B5B681F49184643
:1050B000FBF7DEFE03461A46194B9A601C49D7F8E7
:1050C0002C01FBF721FE03461A46154BDA60144B00
:1050D000DB684FF080411846FBF7CAFE03461A46CC
:1050E0000F4B1A610E4B1B69D7F830111846FBF7AE
:1050F00001FD03461A460A4B5A6100BF07F5A07727
:10510000BD4680BDAFF300806666666666660A408F
:105110000000000000FEAF407C0E0020CDCCCCCCC7
:10512000700F00200000A0418941203F0000204175
:105130000000A04080B500AF78220349034801F089
:1051400031FD00BF80BD00BF7C0E0020B8120020E2
:1051500080B5ADF5027D00AF07F5F07300221A604F
:105160005A609A60DA6007F50273A3F58C731846EB
:10517000F0231A46002107F051F907F50273A3F551
:10518000AA7318463C231A46002107F047F907F591
:105190000273A3F5C87318463C231A46002107F092
:1051A0003DF907F50273A3F5E67318463C231A464A
:1051B000002107F033F907F50273A3F502731846CF
:1051C0003C231A46002107F029F907F50273A3F5DD
:1051D0008C733D4A18461146F0231A4607F098F999
:1051E0000023C7F804324BE0D7F804329A0007F5E1
:1051F0000273A3F58C7333F8121007F50273A3F54D
:10520000AA73D7F8042223F81210D7F804329B00AF
:105210005A1C07F50273A3F58C7333F8121007F5C7
:105220000273A3F5C873D7F8042223F81210D7F835
:1052300004329B009A1C07F50273A3F58C7333F8B4
:10524000121007F50273A3F5E673D7F8042223F8CA
:105250001210D7F804329B00DA1C07F50273A3F58D
:105260008C7333F8121007F50273A3F50273D7F8A5
:10527000042223F81210D7F804320133C7F804329D
:10528000D7F804321D2BAFDD07F1B4031D22002136
:10529000184600F07FFA07F178031D220021184616
:1052A00000F078FA07F13C031D220021184600F0B7
:1052B00071FA3B461D220021184600F06BFA0A23C2
:1052C000C7F800323BE000BF7C0E0020D7F8E03189
:1052D00007F50272A2F5AA72D7F8001232F811206F
:1052E0001344C7F8E031D7F8E43107F50272A2F5AC
:1052F000C872D7F8001232F811201344C7F8E4310D
:10530000D7F8E83107F50272A2F5E672D7F8001275
:1053100032F811201344C7F8E831D7F8EC3107F51B
:105320000272A2F50272D7F8001232F8112013446B
:10533000C7F8EC31D7F800320133C7F80032D7F89C
:105340000032132BC2DDD7F8E031854AA2FB0323DC
:10535000DB081846FBF746F87DA3D3E90023FBF7EB
:10536000BBF802460B46104619467BA3D3E900233F
:10537000FBF7DCF902460B4610461946FBF766FBC5
:105380000346C7F8FC31D7F8E431754AA2FB032382
:10539000DB081846FBF726F86DA3D3E90023FBF7DB
:1053A0009BF802460B46104619466BA3D3E900232F
:1053B000FBF7BCF902460B4610461946FBF746FBC5
:1053C0000346C7F8F831D7F8E831654AA2FB032352
:1053D000DB081846FBF706F85DA3D3E90023FBF7CB
:1053E0007BF802460B46104619465BA3D3E900231F
:1053F000FBF79CF902460B4610461946FBF726FBC5
:105400000346C7F8F431D7F8EC31554AA2FB032321
:10541000DB081846FAF7E6FF4DA3D3E90023FBF7B4
:105420005BF802460B46104619464BA3D3E900230E
:10543000FBF77CF902460B4610461946FBF706FBC4
:105440000346C7F8F031D7F8FC01FAF7EDFF024642
:105450000B461046194600F023F903461A46414B05
:105460001A80D7F8F801FAF7DFFF02460B4610461C
:10547000194600F015F903461A463B4B1A80D7F837
:10548000F401FAF7D1FF02460B461046194600F028
:10549000C5F803461A46354B1A80D7F8F00100F0DC
:1054A0006FF803461A46324B1A80304BB3F900307E
:1054B0001846FAF7A7FF4FF000022E4BFBF736F91C
:1054C00002460B462C49C1E90823274BB3F90020BB
:1054D000294B1A82234BB3F90020274B5A82264BC3
:1054E000B3F91420204BB3F900309A4204DA1E4B72
:1054F000B3F90020204B9A821F4BB3F91620194BA9
:10550000B3F900309A4204DA164BB3F900201A4B73
:10551000DA82194BB3F91820134BB3F900309A42D1
:1055200004DD114BB3F90020134B1A83124BB3F96E
:105530001A200C4BB3F900309A4204DD094BB3F941
:1055400000200D4B5A8300BF07F50277BD4680BD92
:105550006666666666660A400000000000FEAF40B0
:10556000CDCCCCCC0C0A00209A110020400C00209D
:10557000E211002000002440600300200000000031
:1055800080B584B000AF786021497868FBF7BCFB38
:1055900003461846FAF748FF19A3D3E90023FBF79F
:1055A000C5F802460B4610461946FBF74FFA03466C
:1055B000FB601849F868FBF79DFA0346FB60164943
:1055C000F868FBF7A1FB03461846FAF72DFF0EA378
:1055D000D3E90023FBF7AAF802460B46104619460A
:1055E000FBF734FA0346FB60F868FBF7DDFC034683
:1055F0001BB218461037BD4680BD00BFAFF3008018
:105600006666666666660A40AE47E17A14AE1A4080
:105610000000A0400000204000007A4480B584B023
:1056200000AFC7E900011C4B5B691846FAF7FCFEA6
:1056300002460B46D7E90001FAF798FD02460B46F1
:10564000C7E90023144B1B691846FAF7EDFE024622
:105650000B46D7E90001FAF787FD02460B461046D4
:105660001946FBF7F3F90346FB600C49F868FBF7B2
:105670004BFB03461A46084B9B6819461046FBF73E
:10568000F7FB0346FB60F868FBF78EFC03461BB292
:1056900018461037BD4680BD700F002000007A44C8
:1056A000B0B5ADF5CD6D00AF07F1080343E90201D8
:1056B0000023C7F864364FF000024FF0000307F5EF
:1056C000CB61C1E900230A23A7F8563607F5CD635D
:1056D000A3F5CC632E4A184611464FF4C9631A4607
:1056E00006F016FFB7F956361846FAF78BFE07F1A3
:1056F000080353E90223FAF7EFFE02460B4614466D
:105700001D4607F1080353E902231FA1D1E9000157
:10571000FAF72AFD02460B4620462946FBF706F813
:1057200002460B4607F5CB61C1E900230023C7F809
:10573000643617E007F5CD63A3F5CC62D7F864367D
:10574000DB001344D3E9002307F5CB61D1E9000165
:10575000FBF748F90346002B09D1D7F8643601332B
:10576000C7F86436D7F86436C82BE3DD00E000BF25
:10577000D7F864369BB2323B9BB21BB2184607F592
:10578000CD67BD46B0BD00BF6666666666660A4008
:10579000C8D5000880B586B000AF78600B467B8026
:1057A00013463B807B887B613B883B617A883B88E2
:1057B0001344DA0F13445B105B007A6813441B88B0
:1057C000FB6039E07B6901337B617B695B007A6850
:1057D00013441B881A46FB689342F3DC02E03B69E2
:1057E000013B3B613B695B007A6813441B881A46A6
:1057F000FB689342F3DB7A693B699A421CDC7B6964
:105800005B007A6813441B88BB603B695B007A6865
:105810001A447B695B0079680B4412881A803B69E3
:105820005B007A681344BA6892B21A807B690133CC
:105830007B613B69013B3B617A693B699A42C4DD0C
:105840007B883A699A4206DD3B699AB27B881946A1
:105850007868FFF79FFF3B887A699A4206DA7B698E
:105860009BB23A8819467868FFF794FF00BF183753
:10587000BD4680BD80B500AF1E4B00221A601E4B96
:1058800000221A601D4B00221A701D4B00221A7054
:105890001C4A002313641B4AD3631A4A9363194AB0
:1058A0005363194B00229A82174B0022DA82164B5F
:1058B00047F6FF721A83144B47F6FF725A830B2286
:1058C0000021124806F0AAFD0E4B64221A640C2136
:1058D0000F4804F03DFE0121002000F0F1F8012105
:1058E000042000F0EDF80121082000F0E9F800BFE5
:1058F00080BD00BF1C1400202414002020140020B0
:10590000181400200004004060030020480D00200F
:105910002814002080B582B000AF294B00221A70F5
:10592000274B00225A704FF40041264803F0CAF872
:105930000346FB71FB795B00FB714FF4804121480A
:1059400003F0C0F803461A46FB791344FB71FB7958
:105950005B00FB714FF400511A4803F0B3F80346A3
:105960001A46FB791344FB71FB795B00FB714FF422
:105970008051144803F0A6F803461A46FB791344F5
:10598000FB710F4AFB7913704FF400410E4803F08E
:1059900099F80346FB71FB795B00FB714FF4807152
:1059A000094803F08FF803461A46FB791344FB714C
:1059B000034AFB79537000BF0837BD4680BD00BF66
:1059C000780E0020000C01400008014080B582B034
:1059D00000AF0346FB71FB791A464FF48041034840
:1059E00003F087F800BF0837BD4680BD00100140B6
:1059F00080B582B000AF0346FB71FB791A464FF4C5
:105A00008041034803F075F800BF0837BD4680BDEC
:105A10000010014080B582B000AF0346FB71FB79F6
:105A2000012B2ED101220221224803F062F86420CA
:105A300000F0BCFF204B64225A631F4B64229A6320
:105A40001D4B6422DA6300211C4804F081FD04210F
:105A50001A4804F07DFD0821184804F079FD6420FF
:105A600000F0A4FF144B23225A63134B23229A63A2
:105A7000114B2322DA63002202210E4803F039F889
:105A800013E0FB79002B10D100210C4804F002FE3A
:105A900004210A4804F0FEFD0821084804F0FAFD3C
:105AA00000220221034803F024F800BF0837BD4656
:105AB00080BD00BF000C01400004004028140020FD
:105AC00080B582B000AF03460A46FB711346BB7136
:105AD000BB79002B40D0FB79082B06D0082B18DCB3
